:0B000300020C00000112000213EA6072
:03001B00020208D6
:10020800C0E0C0F0C083C082C0D075D000C000C0BC
:1002180001C002C003C004C005C006C007AE13AFCA
:1002280014AB07AA06E4C39BFFE49AFE740194008A
:10023800FDE49400FCE4FB7A01F9F812068E8F8D38
:10024800AE13AF14AB07AA06E4C39BFFE49AFE748F
:10025800019400FDE49400FCE4FB7A01F9F812062D
:100268008EAF038F8B7580FFE512B4052D751200D4
:1002780075150075160074282516F5827400351555
:10028800F583E0FF1206F30516E51670020515C39F
:100298009405E515940040DE8035E5127002C280B1
:1002A800E512B40102C281E512B40202C282E5126B
:1002B800B40302C283E512B40402C284E590F4FFD9
:1002C80074282512F582E43400F583EFF00512D086
:1002D80007D006D005D004D003D002D001D000D07A
:0A02E800D0D082D083D0F0D0E032F5
:1002F20075C7AA75C75575AA07A2AF9200C2AF7596
:10030200C7AA75C75543AA80A20092AFA2AF9200B6
:10031200C2AF75C7AA75C75543AA40A20092AF43A0
:100322009B10D2AFE4F5B1F5B1F5B3F5B4F5ACF588
:10033200AD53B1FE43B20153B1FD43B20253B1FB1F
:1003420043B20453B1F743B20853B1EF43B210536F
:10035200890F438910AE13AF14AB07AA06C39BFFE4
:10036200E49AFE74019400FDE49400FCE4FB7A013B
:10037200F9F812068E8F8DAE13AF14AB07AA06E4FE
:10038200C39BFFE49AFE74019400FDE49400FCE434
:10039200FB7A01F9F812068EAF038F8BD2ABD2AF84
:1003A200D28E7F007EC27D017C0012001EA2AF921F
:1003B20000C2AF75C7AA75C75543AA40A20092AF43
:0203C20080EBCE
:1006D200538EF7438901D28CEF4E6012758AF375FF
:1006E2008CFF308DFDC28DEF1F70ED1E80EAC28C33
:0106F20022E5
:1005F8008F1C8E1B8D1A8C19538EF7438901D28C50
:10060800E4FFFEFDFCAB1CAA1BA91AA819C3120122
:10061800E46025758ACA758CFA308DFDC28DE51C9B
:1006280024FFF51CE51B34FFF51BE51A34FFF51A0A
:0B063800E51934FFF51980C8C28C22C0
:100643008F248E238D228C21538EEF438910D28EDB
:10065300E4FFFEFDFCAB24AA23A922A821C31201B7
:10066300E46025758BCA758DFA308FFDC28FE52442
:1006730024FFF524E52334FFF523E52234FFF52297
:0B068300E52134FFF52180C8C28E2263
:10055D008F288E278D268C2553C9BF53C9DF43C9DC
:10056D0010D2CAE4FFFEFDFCAB28AA27A926A825B8
:10057D00C31201E4602575CC6075CDF030CFFDC29E
:10058D00CFE52824FFF528E52734FFF527E52634A8
:0E059D00FFF526E52534FFF52580C8C2CA22E9
:1005AB008F2C8E2B8D2A8C2975C40243C408E4FF33
:1005BB00FEFDFCAB2CAA2BA92AA829C31201E460CF
:1005CB002875C56075C6F0E5C430E4FB53C4EFE590
:1005DB002C24FFF52CE52B34FFF52BE52A34FFF506
:0D05EB002AE52934FFF52980C553C4F72205
:100506008F308E2F8D2E8C2D53B1BF53B2BF53B16A
:100516007F53B27F759852438920438780438E105C
:1005260053C4DFAB30AA2FA92EA82D7F407E427D73
:100536000F7C00120152EF04F404F58DAB30AA2FA4
:10054600A92EA82D7F007E187D157C00120152EF82
:07055600F404F58DD28E22A2
:10001E008F388E378D368C3553B1BF53B2BF53B137
:10002E007F53B27F75985243878053C4F843C420E0
:10003E00AB38AA37A936A8357F407E427D0F7C00AB
:10004E00120152C374FF9FFF74FF9EFEE49DFDE4F8
:10005E009CFC78081201F58FC6AB38AA37A936A8D2
:10006E00357F407E427D0F7C00120152C374FF9F8C
:10007E00FF74FF9EE49DE49CE48FC5AB38AA37A9BC
:10008E0036A835FF7E187D15FC120152C3E49FFF82
:10009E00E49EFE74019DFDE49CFC78081201F58F30
:1000AE00C6AB38AA37A936A8357F007E187D157CD9
:1000BE0000120152C3E49FFFE49E74019DE49CE490
:1000CE008FC5AB38AA37A936A8357F407E427D0F43
:1000DE00FC120152C374FF9FFF74FF9EFEE49DFD50
:1000EE00E49CFC78081201F58FC6AB38AA37A93606
:1000FE00A8357F407E427D0F7C00120152C374FFF3
:08010E009FFF8FC543C40822C6
:07000F003098FDAF99C29883
:0100160022C7
:0806F300C2998F993099FD2294
:1003C4008F348E338D328C3153B1FB53B2FB53B324
:1003D400BF53B4BF75F85253C4F8AB34AA33A9322F
:1003E400A8317F407E427D0F7C00120152C374FF0E
:1003F4009FFF74FF9EFEE49DFDE49CFC78081201BF
:10040400F58FC6AB34AA33A932A8317F407E427D32
:100414000F7C00120152C374FF9FFF74FF9EE49D82
:10042400E49CE48FC5AB34AA33A932A831FF7E180B
:100434007D15FC120152C3E49FFFE49EFE74019DEE
:10044400FDE49CFC78081201F58FC6AB34AA33A9ED
:1004540032A8317F007E187D157C00120152C3E45E
:080464009FFF8FC543C408226D
:0706FB0030F8FDAF9AC2F8D0
:0107020022D4
:08070300C2F98F9A30F9FD22C2
:0300000002046C8B
:10046C00787FE4F6D8FD9000007FFF7E03E4F0A3D4
:0A047C00DFFCDEFA7581380204C1CE
:100486000202F2E493A3F8E493A34003F68001F298
:1004960008DFF48029E493A3F85407240CC8C33377
:1004A600C4540F4420C8834004F456800146F6DF46
:1004B600E4800B0102040810204080900003E47ED3
:1004C600019360BCA3FF543F30E509541FFEE4933B
:1004D600A360010ECF54C025E060A840B8E493A302
:1004E600FAE493A3F8E493A3C8C582C8CAC583CA2D
:1004F600F0A3C8C582C8CAC583CADFE9DEE780BEE5
:01000E0000F1
:1001160075F008758200EF2FFFEE33FECD33CDCCA0
:1001260033CCC58233C5829BED9AEC99E582984023
:100136000CF582EE9BFEED9AFDEC99FC0FD5F0D600
:10014600E4CEFBE4CDFAE4CCF9A88222B800C1B92A
:100156000059BA002DEC8BF084CFCECDFCE5F0CB68
:10016600F97818EF2FFFEE33FEED33FDEC33FCEBA1
:1001760033FB10D703994004EB99FB0FD8E5E4F95C
:10018600FA227818EF2FFFEE33FEED33FDEC33FC49
:10019600C933C910D7059BE99A4007EC9BFCE99A3D
:1001A600F90FD8E0E4C9FAE4CCFB2275F010EF2F82
:1001B600FFEE33FEED33FDCC33CCC833C810D70782
:1001C6009BEC9AE899400AED9BFDEC9AFCE899F8BD
:0E01D6000FD5F0DAE4CDFBE4CCFAE4C8F92250
:10068E00C2D5E830E70FB2D5E4C39BFBE49AFAE497
:10069E0099F9E498F8EC30E717B2D51206C41201B6
:1006AE0052E4C39BFBE49AFAE499F9E498F88003C8
:1006BE0012015230D50DE4C39FFFE49EFEE49DFD72
:0406CE00E49CFC228A
:1001E400EB9FF5F0EA9E42F0E99D42F0E89C45F071
:0101F40022E8
:1001F500E8600FECC313FCED13FDEE13FEEF13FFE8
:03020500D8F1220B
:00000001FF
