:100A920020282C291E1F202122352A2B141A081542
:100AA200171C1839041607090A0B0DE14A1D1B060B
:100AB20019054D3A3B3EE1E02CE2280221000201F9
:060AC20023000224014D97
:1003B000752100752202E4F528F52974002529F538
:1003C0008274003528F583E4F00529E529700205DB
:1003D000286408452870E490000DE0702BA3E070BD
:1003E00027A3E07023A3E0701FA3E0701BF528F59E
:1003F00029E4FF12000B0529E52970020528C394A2
:1004000008E528940040EA22E4F528F529740D2532
:1004100029F58274003528F583E06078E4F52AF543
:100420002BAF2B740D2529F58274003528F583E058
:10043000FEA807088002C313D8FC30E049E52975FF
:10044000F008A42F242CF8E6752600F527C394E0C5
:10045000E52694004019E527540FFF7401A807080A
:100460008002C333D8FCFF900000E02FF0801774A7
:10047000002522F58274003521F583E527F0052259
:10048000E52270020521052BE52B7002052A640880
:10049000452A708D0529E52970020528640545283F
:1004A000600302040DE4F528F52974002529F5827E
:1004B00074003528F583E0FF12000B0529E529704B
:0D04C000020528C39408E528940040DE22C0
:03001B000205C516
:1005C500C0E0C0F0C083C082C0D075D000C000C0FC
:1005D50001C002C003C004C005C006C007AE24AFF9
:1005E50025AB07AA06E4C39BFFE49AFE74019400B9
:1005F500FDE49400FCE4FB7A01F9F8120A4E8F8DB4
:10060500AE24AF25AB07AA06E4C39BFFE49AFE74AC
:10061500019400FDE49400FCE4FB7A01F9F8120A68
:100625004EAF038F8B7580FFE5236405702FF5238F
:1006350078087C007D017B017A00790DFE7F05122B
:10064500038CEF604D78087C007D017B017A007991
:100655000D7E007F051200EE1203B08035E5237094
:1006650002C280E523B40102C281E523B40202C2BD
:1006750082E523B40302C283E523B40402C284E500
:1006850090F4FF740D2523F582E43400F583EFF033
:100695000523D007D006D005D004D003D002D00161
:0D06A500D000D0D0D082D083D0F0D0E03291
:1006B20075C7AA75C75575AA07A2AF9200C2AF75D2
:1006C200C7AA75C75543AA80A20092AFA2AF9200F3
:1006D200C2AF75C7AA75C75543AA40A20092AF43DD
:1006E2009B10D2AFE4F5B1F5B1F5B3F5B4F5ACF5C5
:1006F200AD53B1FE43B20153B1FD43B20253B1FB5C
:1007020043B20453B1F743B20853B1EF43B21053AB
:10071200890F438910AE24AF25AB07AA06C39BFFFE
:10072200E49AFE74019400FDE49400FCE4FB7A0177
:10073200F9F8120A4E8F8DAE24AF25AB07AA06E454
:10074200C39BFFE49AFE74019400FDE49400FCE470
:10075200FB7A01F9F8120A4EAF038F8BD2ABD2AFFC
:10076200D28E7F007EC27D017C001204CDA2AF92A8
:1007720000C2AF75C7AA75C75543AA40A20092AF7F
:0207820080EB0A
:100AC900538EF7438901D28CEF4E6012758AF37504
:100AD9008CFF308DFDC28DEF1F70ED1E80EAC28C38
:010AE90022EA
:1009B8008F0B8E0A8D098C08538EF7438901D28CD0
:1009C800E4FFFEFDFCAB0BAA0AA909A808C31201A3
:1009D800E26025758ACA758CFA308DFDC28DE50BEB
:1009E80024FFF50BE50A34FFF50AE50934FFF5099C
:0B09F800E50834FFF50880C8C28C221F
:100A03008F0F8E0E8D0D8C0C538EEF438910D28E6B
:100A1300E4FFFEFDFCAB0FAA0EA90DA80CC3120147
:100A2300E26025758BCA758DFA308FFDC28FE50F95
:100A330024FFF50FE50E34FFF50EE50D34FFF50D3C
:0B0A4300E50C34FFF50C80C8C28E22C9
:10091D008F138E128D118C1053C9BF53C9DF43C96C
:10092D0010D2CAE4FFFEFDFCAB13AA12A911A81048
:10093D00C31201E2602575CC6075CDF030CFFDC2DC
:10094D00CFE51324FFF513E51234FFF512E511344D
:0E095D00FFF511E51034FFF51080C8C2CA2264
:10096B008F178E168D158C1475C40243C408E4FFC3
:10097B00FEFDFCAB17AA16A915A814C31201E26061
:10098B002875C56075C6F0E5C430E4FB53C4EFE5CC
:10099B001724FFF517E51634FFF516E51534FFF5AB
:0D09AB0015E51434FFF51480C553C4F72280
:1008C6008F1B8E1A8D198C1853B1BF53B2BF53B1FB
:1008D6007F53B27F759852438920438780438E1099
:1008E60053C4DFAB1BAA1AA919A8187F407E427D04
:1008F6000F7C00120150EF04F404F58DAB1BAA1A0D
:10090600A919A8187F007E187D157C00120150EFEA
:07091600F404F58DD28E22DE
:1004CD008F578E568D558C5453B1BF53B2BF53B108
:1004DD007F53B27F75985243878053C4F843C4202D
:1004ED00AB57AA56A955A8547F407E427D0F7C007C
:1004FD00120150C374FF9FFF74FF9EFEE49DFDE447
:10050D009CFC78081201F38FC6AB57AA56A955A8C3
:10051D00547F407E427D0F7C00120150C374FF9FBB
:10052D00FF74FF9EE49DE49CE48FC5AB57AA56A9CA
:10053D0055A854FF7E187D15FC120150C3E49FFF92
:10054D00E49EFE74019DFDE49CFC78081201F38F7E
:10055D00C6AB57AA56A955A8547F007E187D157CA9
:10056D0000120150C3E49FFFE49E74019DE49CE4DE
:10057D008FC5AB57AA56A955A8547F407E427D0F13
:10058D00FC120150C374FF9FFF74FF9EFEE49DFD9E
:10059D00E49CFC78081201F38FC6AB57AA56A955F7
:1005AD00A8547F407E427D0F7C00120150C374FF22
:0805BD009FFF8FC543C4082213
:070003003098FDAF99C2988F
:01000A0022D3
:08000B00C2998F993099FD2282
:100784008F1F8E1E8D1D8C1C53B1FB53B2FB53B3B4
:10079400BF53B4BF75F85253C4F8AB1FAA1EA91DAA
:1007A400A81C7F407E427D0F7C00120150C374FF61
:1007B4009FFF74FF9EFEE49DFDE49CFC78081201FB
:1007C400F38FC6AB1FAA1EA91DA81C7F407E427DC5
:1007D4000F7C00120150C374FF9FFF74FF9EE49DC1
:1007E400E49CE48FC5AB1FAA1EA91DA81CFF7E189C
:1007F4007D15FC120150C3E49FFFE49EFE74019D2D
:10080400FDE49CFC78081201F38FC6AB1FAA1EA955
:100814001DA81C7F007E187D157C00120150C3E4C6
:080824009FFF8FC543C40822A9
:0700130030F8FDAF9AC2F8BE
:01001A0022C3
:080AEA00C2F98F9A30F9FD22D8
:0300000002082CC7
:10082C00787FE4F6D8FD9000007FFF7E03E4F0A310
:0A083C00DFFCDEFA75815702088127
:100846000206B2E493A3F8E493A34003F68001F210
:1008560008DFF48029E493A3F85407240CC8C333B3
:10086600C4540F4420C8834004F456800146F6DF82
:10087600E4800B0102040810204080900A92E47E76
:10088600019360BCA3FF543F30E509541FFEE49377
:10089600A360010ECF54C025E060A840B8E493A33E
:1008A600FAE493A3F8E493A3C8C582C8CAC583CA69
:1008B600F0A3C8C582C8CAC583CADFE9DEE780BE21
:010AC800002D
:10001E00E709F608DFFA8046E709F208DFFA803EC4
:10002E0088828C83E709F0A3DFFA8032E309F608B1
:10003E00DFFA8078E309F208DFFA807088828C8319
:10004E00E309F0A3DFFA806489828A83E0A3F608CD
:10005E00DFFA805889828A83E0A3F208DFFA804CA7
:10006E0080D280FA80C680D4806980F2803380107E
:10007E0080A680EA809A80A880DA80E280CA8033E7
:10008E0089828A83ECFAE493A3C8C582C8CCC5835F
:10009E00CCF0A3C8C582C8CCC583CCDFE9DEE7802F
:1000AE000D89828A83E493A3F608DFF9ECFAA9F0AE
:1000BE00EDFB2289828A83ECFAE0A3C8C582C8CC04
:1000CE00C583CCF0A3C8C582C8CCC583CCDFEADE1D
:1000DE00E880DB89828A83E493A3F208DFF980CC7F
:1000EE0088F0EF60010E4E60C388F0ED2402B40478
:1000FE000050B9F582EB2402B4040050AF2323451F
:06010E00822390006E73D5
:1001140075F008758200EF2FFFEE33FECD33CDCCA2
:1001240033CCC58233C5829BED9AEC99E582984025
:100134000CF582EE9BFEED9AFDEC99FC0FD5F0D602
:10014400E4CEFBE4CDFAE4CCF9A88222B800C1B92C
:100154000059BA002DEC8BF084CFCECDFCE5F0CB6A
:10016400F97818EF2FFFEE33FEED33FDEC33FCEBA3
:1001740033FB10D703994004EB99FB0FD8E5E4F95E
:10018400FA227818EF2FFFEE33FEED33FDEC33FC4B
:10019400C933C910D7059BE99A4007EC9BFCE99A3F
:1001A400F90FD8E0E4C9FAE4CCFB2275F010EF2F84
:1001B400FFEE33FEED33FDCC33CCC833C810D70784
:1001C4009BEC9AE899400AED9BFDEC9AFCE899F8BF
:0E01D4000FD5F0DAE4CDFBE4CCFAE4C8F92252
:100A4E00C2D5E830E70FB2D5E4C39BFBE49AFAE4D3
:100A5E0099F9E498F8EC30E717B2D5120A8412012E
:100A6E0050E4C39BFBE49AFAE499F9E498F8800306
:100A7E0012015030D50DE4C39FFFE49EFEE49DFDB0
:040A8E00E49CFC22C6
:1001E200EB9FF5F0EA9E42F0E99D42F0E89C45F073
:0101F20022EA
:1001F300E8600FECC313FCED13FDEE13FEEF13FFEA
:03020300D8F1220D
:10020600E3F5F009E208B5F06BDFF58067E3F5F09A
:1002160009E608B5F05EDFF5805A87F009E608B50D
:10022600F052DFF6804E87F009E208B5F046DFF6B9
:10023600804288828C8387F009E0A3B5F036DFF62A
:10024600803288828C8387F009E493A3B5F025DF9A
:10025600F5802188828C83E3F5F009E0A3B5F014DC
:10026600DFF5801088828C83E3F5F009E493A3B56B
:10027600F002DFF4020335808780E9809080D48025
:100286003E8015806E807E809D80B7808D80A380A5
:10029600518074803C02034189828A83ECFAE4939C
:1002A600F5F0A3C8C582C8CCC583CCE493A3C8C562
:1002B60082C8CCC583CCB5F076DFE3DEE1807089F9
:1002C600828A83E493F5F0A3E208B5F062DFF48056
:1002D6005E89828A83E0F5F0A3E608B5F051DFF582
:1002E600804D89828A83E0F5F0A3E208B5F040DF0D
:1002F600F5803C89828A83E493F5F0A3E608B5F09D
:100306002EDFF4802A8002805789828A83ECFAE401
:1003160093F5F0A3C8C582C8CCC583CCE0A3C8C5F5
:1003260082C8CCC583CCB5F006DFE4DEE280007F70
:10033600FFB5F0020F2240027F012289828A83ECF8
:10034600FAE0F5F0A3C8C582C8CCC583CCE0A3C843
:10035600C582C8CCC583CCB5F0D5DFE5DEE380CF5A
:1003660089828A83ECFAE0F5F0A3C8C582C8CCC5B9
:1003760083CCE493A3C8C582C8CCC583CCB5F0AF03
:10038600DFE4DEE280A988F0EF60010E4E60ABED9F
:100396002402B404005098F582EB2402B404005001
:0A03A6008E232345822390027D730D
:00000001FF
