:10000300020C000002100000020E000002170000A4
:070013000116000219FFFFB6
:03001B0002039944
:10039900C0E0C0F0C083C082C0D075D000C000C02A
:1003A90001C002C003C004C005C006C007AE19AF32
:1003B9001AAB07AA06E4C39BFFE49AFE74019400F2
:1003C900FDE49400FCE4FB7A01F9F81206618F8DD3
:1003D900AE19AF1AAB07AA06E4C39BFFE49AFE74F1
:1003E900019400FDE49400FCE4FB7A01F9F812069B
:1003F90061AF038F8BAF801206CE7580E0AF1674A4
:1004090001A807088002C333D8FC42800516E51607
:10041900B40603751600AF901206CED007D006D0E9
:1004290005D004D003D002D001D000D0D0D082D0E2
:0604390083D0F0D0E03298
:1002080075C7AA75C75575AA07A2AF9200C2AF7580
:10021800C7AA75C75543AA80A20092AFA2AF9200A1
:10022800C2AF75C7AA75C75543AA40A20092AF438B
:100238009B10D2AFE4F5B1F5B1F5B3F5B4F5ACF573
:10024800AD7580E0F59043B30153B4FE43B3025358
:10025800B4FD43B30453B4FB43B30853B4F743B3F7
:100268001053B4EF43B32053B4DF43B34053B4BF88
:1002780043B38053B47F53890F438910AE19AF1A23
:10028800AB07AA06C39BFFE49AFE74019400FDE441
:100298009400FCE4FB7A01F9F81206618F8DAE191F
:1002A800AF1AAB07AA06E4C39BFFE49AFE74019455
:1002B80000FDE49400FCE4FB7A01F9F8120661AF52
:1002C800038F8BD2ABD2AFD28E7F007EC27D017CF2
:1002D8000012001EA2AF9200C2AF75C7AA75C7551B
:0902E80043AA40A20092AF80EB92
:1006A500538EF7438901D28CEF4E6012758AF3752C
:1006B5008CFF308DFDC28DEF1F70ED1E80EAC28C60
:0106C5002212
:1005CB008F248E238D228C21538EF7438901D28C5D
:1005DB00E4FFFEFDFCAB24AA23A922A821C3120130
:1005EB00E46025758ACA758CFA308DFDC28DE524C1
:1005FB0024FFF524E52334FFF523E52234FFF52210
:0B060B00E52134FFF52180C8C28C22DD
:100616008F288E278D268C25538EEF438910D28EF8
:10062600E4FFFEFDFCAB28AA27A926A825C31201D4
:10063600E46025758BCA758DFA308FFDC28FE5286B
:1006460024FFF528E52734FFF527E52634FFF526B0
:0B065600E52534FFF52580C8C28E2288
:100530008F2C8E2B8D2A8C2953C9BF53C9DF43C9F9
:1005400010D2CAE4FFFEFDFCAB2CAA2BA92AA829D5
:10055000C31201E4602575CC6075CDF030CFFDC2CB
:10056000CFE52C24FFF52CE52B34FFF52BE52A34C1
:0E057000FFF52AE52934FFF52980C8C2CA220A
:10057E008F308E2F8D2E8C2D75C40243C408E4FF50
:10058E00FEFDFCAB30AA2FA92EA82DC31201E460EC
:10059E002875C56075C6F0E5C430E4FB53C4EFE5BD
:1005AE003024FFF530E52F34FFF52FE52E34FFF51F
:0D05BE002EE52D34FFF52D80C553C4F72226
:1004D9008F348E338D328C3153B1BF53B2BF53B188
:1004E9007F53B27F759852438920438780438E108A
:1004F90053C4DFAB34AA33A932A8317F407E427D91
:100509000F7C00120152EF04F404F58DAB34AA33C9
:10051900A932A8317F007E187D157C00120152EFA7
:07052900F404F58DD28E22CF
:10001E008F3C8E3B8D3A8C3953B1BF53B2BF53B127
:10002E007F53B27F75985243878053C4F843C420E0
:10003E00AB3CAA3BA93AA8397F407E427D0F7C009B
:10004E00120152C374FF9FFF74FF9EFEE49DFDE4F8
:10005E009CFC78081201F58FC6AB3CAA3BA93AA8C6
:10006E00397F407E427D0F7C00120152C374FF9F88
:10007E00FF74FF9EE49DE49CE48FC5AB3CAA3BA9B4
:10008E003AA839FF7E187D15FC120152C3E49FFF7A
:10009E00E49EFE74019DFDE49CFC78081201F58F30
:1000AE00C6AB3CAA3BA93AA8397F007E187D157CC9
:1000BE0000120152C3E49FFFE49E74019DE49CE490
:1000CE008FC5AB3CAA3BA93AA8397F407E427D0F33
:1000DE00FC120152C374FF9FFF74FF9EFEE49DFD50
:1000EE00E49CFC78081201F58FC6AB3CAA3BA93AFA
:1000FE00A8397F407E427D0F7C00120152C374FFEF
:08010E009FFF8FC543C40822C6
:0706C6003098FDAF99C298C6
:0106CD00220A
:0806CE00C2998F993099FD22B9
:1002F1008F388E378D368C3553B1FB53B2FB53B3E8
:10030100BF53B4BF75F85253C4F8AB38AA37A936F6
:10031100A8357F407E427D0F7C00120152C374FFDD
:100321009FFF74FF9EFEE49DFDE49CFC7808120192
:10033100F58FC6AB38AA37A936A8357F407E427DF6
:100341000F7C00120152C374FF9FFF74FF9EE49D56
:10035100E49CE48FC5AB38AA37A936A835FF7E18CF
:100361007D15FC120152C3E49FFFE49EFE74019DC2
:10037100FDE49CFC78081201F58FC6AB38AA37A9B9
:1003810036A8357F007E187D157C00120152C3E42A
:080391009FFF8FC543C4082241
:0706D60030F8FDAF9AC2F8F5
:0106DD0022FA
:0806DE00C2F98F9A30F9FD22E8
:0300000002043FB8
:10043F00787FE4F6D8FD9000007FFF7E03E4F0A301
:0A044F00DFFCDEFA75813C02049424
:10045900020208E493A3F8E493A34003F68001F2AF
:1004690008DFF48029E493A3F85407240CC8C333A4
:10047900C4540F4420C8834004F456800146F6DF73
:10048900E4800B0102040810204080900003E47E00
:10049900019360BCA3FF543F30E509541FFEE49368
:1004A900A360010ECF54C025E060A840B8E493A32F
:1004B900FAE493A3F8E493A3C8C582C8CAC583CA5A
:1004C900F0A3C8C582C8CAC583CADFE9DEE780BE12
:01001A0000E5
:1001160075F008758200EF2FFFEE33FECD33CDCCA0
:1001260033CCC58233C5829BED9AEC99E582984023
:100136000CF582EE9BFEED9AFDEC99FC0FD5F0D600
:10014600E4CEFBE4CDFAE4CCF9A88222B800C1B92A
:100156000059BA002DEC8BF084CFCECDFCE5F0CB68
:10016600F97818EF2FFFEE33FEED33FDEC33FCEBA1
:1001760033FB10D703994004EB99FB0FD8E5E4F95C
:10018600FA227818EF2FFFEE33FEED33FDEC33FC49
:10019600C933C910D7059BE99A4007EC9BFCE99A3D
:1001A600F90FD8E0E4C9FAE4CCFB2275F010EF2F82
:1001B600FFEE33FEED33FDCC33CCC833C810D70782
:1001C6009BEC9AE899400AED9BFDEC9AFCE899F8BD
:0E01D6000FD5F0DAE4CDFBE4CCFAE4C8F92250
:10066100C2D5E830E70FB2D5E4C39BFBE49AFAE4C4
:1006710099F9E498F8EC30E717B2D5120697120110
:1006810052E4C39BFBE49AFAE499F9E498F88003F5
:1006910012015230D50DE4C39FFFE49EFEE49DFD9F
:0406A100E49CFC22B7
:1001E400EB9FF5F0EA9E42F0E99D42F0E89C45F071
:0101F40022E8
:1001F500E8600FECC313FCED13FDEE13FEEF13FFE8
:03020500D8F1220B
:00000001FF
