:10000300020C000002100000020E000002170000A4
:070013000116000219FFFFB6
:03001B000202DD01
:1002DD00C0E0C0F0C083C082C0D075D000C000C0E7
:1002ED0001C002C003C004C005C006C007AE19AFEF
:1002FD001AAB07AA06E4C39BFFE49AFE74019400AF
:10030D00FDE49400FCE4FB7A01F9F812067A8F8D76
:10031D00AE19AF1AAB07AA06E4C39BFFE49AFE74AD
:10032D00019400FDE49400FCE4FB7A01F9F8120657
:10033D007AAF038F8B7580FFE516B4050575160032
:10034D008046E5167002C280E516B40102C281E551
:10035D0016B40202C282E516B40302C283E516B4D6
:10036D000402C284E580F4FF74282516F582E43476
:10037D0000F583EFF0AF161206E7AF801206E7E542
:10038D0090F4FF1206E70516D007D006D005D0046D
:10039D00D003D002D001D000D0D0D082D083D0F005
:0303AD00D0E0326B
:1002080075C7AA75C75575AA07A2AF9200C2AF7580
:10021800C7AA75C75543AA80A20092AFA2AF9200A1
:10022800C2AF75C7AA75C75543AA40A20092AF438B
:100238009B10D2AFE4F5B1F5B1F5B3F5B4F5ACF573
:10024800AD53B1FE43B20153B1FD43B20253B1FB0A
:1002580043B20453B1F743B20853B1EF43B2107538
:1002680080E053890F438910AE19AF1AAB07AA066D
:10027800C39BFFE49AFE74019400FDE49400FCE43F
:10028800FB7A01F9F812067A8F8DAE19AF1AAB070F
:10029800AA06E4C39BFFE49AFE74019400FDE4946B
:1002A80000FCE4FB7A01F9F812067AAF038F8BD2CF
:1002B800ABD2AFD28E7F007EC27D017C0012001EC1
:1002C800A2AF9200C2AF75C7AA75C75543AA40A28C
:0502D8000092AF80EB75
:1006BE00538EF7438901D28CEF4E6012758AF37513
:1006CE008CFF308DFDC28DEF1F70ED1E80EAC28C47
:0106DE0022F9
:1005E4008F248E238D228C21538EF7438901D28C44
:1005F400E4FFFEFDFCAB24AA23A922A821C3120117
:10060400E46025758ACA758CFA308DFDC28DE524A7
:1006140024FFF524E52334FFF523E52234FFF522F6
:0B062400E52134FFF52180C8C28C22C4
:10062F008F288E278D268C25538EEF438910D28EDF
:10063F00E4FFFEFDFCAB28AA27A926A825C31201BB
:10064F00E46025758BCA758DFA308FFDC28FE52852
:10065F0024FFF528E52734FFF527E52634FFF52697
:0B066F00E52534FFF52580C8C28E226F
:100549008F2C8E2B8D2A8C2953C9BF53C9DF43C9E0
:1005590010D2CAE4FFFEFDFCAB2CAA2BA92AA829BC
:10056900C31201E4602575CC6075CDF030CFFDC2B2
:10057900CFE52C24FFF52CE52B34FFF52BE52A34A8
:0E058900FFF52AE52934FFF52980C8C2CA22F1
:100597008F308E2F8D2E8C2D75C40243C408E4FF37
:1005A700FEFDFCAB30AA2FA92EA82DC31201E460D3
:1005B7002875C56075C6F0E5C430E4FB53C4EFE5A4
:1005C7003024FFF530E52F34FFF52FE52E34FFF506
:0D05D7002EE52D34FFF52D80C553C4F7220D
:1004F2008F348E338D328C3153B1BF53B2BF53B16F
:100502007F53B27F759852438920438780438E1070
:1005120053C4DFAB34AA33A932A8317F407E427D77
:100522000F7C00120152EF04F404F58DAB34AA33B0
:10053200A932A8317F007E187D157C00120152EF8E
:07054200F404F58DD28E22B6
:10001E008F3C8E3B8D3A8C3953B1BF53B2BF53B127
:10002E007F53B27F75985243878053C4F843C420E0
:10003E00AB3CAA3BA93AA8397F407E427D0F7C009B
:10004E00120152C374FF9FFF74FF9EFEE49DFDE4F8
:10005E009CFC78081201F58FC6AB3CAA3BA93AA8C6
:10006E00397F407E427D0F7C00120152C374FF9F88
:10007E00FF74FF9EE49DE49CE48FC5AB3CAA3BA9B4
:10008E003AA839FF7E187D15FC120152C3E49FFF7A
:10009E00E49EFE74019DFDE49CFC78081201F58F30
:1000AE00C6AB3CAA3BA93AA8397F007E187D157CC9
:1000BE0000120152C3E49FFFE49E74019DE49CE490
:1000CE008FC5AB3CAA3BA93AA8397F407E427D0F33
:1000DE00FC120152C374FF9FFF74FF9EFEE49DFD50
:1000EE00E49CFC78081201F58FC6AB3CAA3BA93AFA
:1000FE00A8397F407E427D0F7C00120152C374FFEF
:08010E009FFF8FC543C40822C6
:0706DF003098FDAF99C298AD
:0106E60022F1
:0806E700C2998F993099FD22A0
:1003B0008F388E378D368C3553B1FB53B2FB53B328
:1003C000BF53B4BF75F85253C4F8AB38AA37A93637
:1003D000A8357F407E427D0F7C00120152C374FF1E
:1003E0009FFF74FF9EFEE49DFDE49CFC78081201D3
:1003F000F58FC6AB38AA37A936A8357F407E427D37
:100400000F7C00120152C374FF9FFF74FF9EE49D96
:10041000E49CE48FC5AB38AA37A936A835FF7E180F
:100420007D15FC120152C3E49FFFE49EFE74019D02
:10043000FDE49CFC78081201F58FC6AB38AA37A9F9
:1004400036A8357F007E187D157C00120152C3E46A
:080450009FFF8FC543C4082281
:0706EF0030F8FDAF9AC2F8DC
:0106F60022E1
:0806F700C2F98F9A30F9FD22CF
:030000000204589F
:10045800787FE4F6D8FD9000007FFF7E03E4F0A3E8
:0A046800DFFCDEFA75813C0204ADF2
:10047200020208E493A3F8E493A34003F68001F296
:1004820008DFF48029E493A3F85407240CC8C3338B
:10049200C4540F4420C8834004F456800146F6DF5A
:1004A200E4800B0102040810204080900003E47EE7
:1004B200019360BCA3FF543F30E509541FFEE4934F
:1004C200A360010ECF54C025E060A840B8E493A316
:1004D200FAE493A3F8E493A3C8C582C8CAC583CA41
:1004E200F0A3C8C582C8CAC583CADFE9DEE780BEF9
:01001A0000E5
:1001160075F008758200EF2FFFEE33FECD33CDCCA0
:1001260033CCC58233C5829BED9AEC99E582984023
:100136000CF582EE9BFEED9AFDEC99FC0FD5F0D600
:10014600E4CEFBE4CDFAE4CCF9A88222B800C1B92A
:100156000059BA002DEC8BF084CFCECDFCE5F0CB68
:10016600F97818EF2FFFEE33FEED33FDEC33FCEBA1
:1001760033FB10D703994004EB99FB0FD8E5E4F95C
:10018600FA227818EF2FFFEE33FEED33FDEC33FC49
:10019600C933C910D7059BE99A4007EC9BFCE99A3D
:1001A600F90FD8E0E4C9FAE4CCFB2275F010EF2F82
:1001B600FFEE33FEED33FDCC33CCC833C810D70782
:1001C6009BEC9AE899400AED9BFDEC9AFCE899F8BD
:0E01D6000FD5F0DAE4CDFBE4CCFAE4C8F92250
:10067A00C2D5E830E70FB2D5E4C39BFBE49AFAE4AB
:10068A0099F9E498F8EC30E717B2D51206B01201DE
:10069A0052E4C39BFBE49AFAE499F9E498F88003DC
:1006AA0012015230D50DE4C39FFFE49EFEE49DFD86
:0406BA00E49CFC229E
:1001E400EB9FF5F0EA9E42F0E99D42F0E89C45F071
:0101F40022E8
:1001F500E8600FECC313FCED13FDEE13FEEF13FFE8
:03020500D8F1220B
:00000001FF
