:100AC70020282C291E1F20212235C72B141A081570
:100AD700172F3039041607090AC8C9E1C11D1B06BB
:100AE70019C6C23EE3E2E1E02CD7C00221000201B1
:060AF70023000224014D62
:1003B000752100752202E4F528F52974002529F538
:1003C0008274003528F583E4F00529E529700205DB
:1003D000286408452870E490000DE0702BA3E070BD
:1003E00027A3E07023A3E0701FA3E0701BF528F59E
:1003F00029E4FF12000B0529E52970020528C394A2
:1004000008E528940040EA22E4F528F529740D2532
:1004100029F58274003528F583E070030204C9E4ED
:10042000F52AF52BAF2B740D2529F582740035289C
:10043000F583E0FEA807088002C313D8FC30E078FB
:10044000E52975F008A42F242CF8E6752600F52779
:10045000C394E0E52694004019E527540FFF74018A
:10046000A807088002C333D8FCFF900000E02FF0FB
:100470008046C3E52794C0E5269400402490000000
:10048000E02402F0E527245EFF74002522F5827443
:10049000003521F583EFF00522E522700205218069
:1004A0001774002522F58274003521F583E527F0C5
:1004B0000522E52270020521052BE52B7002052A95
:1004C0006408452A60030204240529E52970020511
:1004D0002864054528600302040DE4F528F5297415
:1004E000002529F58274003528F583E0FF12000B02
:1004F0000529E52970020528C39408E528940040E1
:02050000DE22F9
:03001B000205FAE1
:1005FA00C0E0C0F0C083C082C0D075D000C000C0C7
:10060A0001C002C003C004C005C006C007AE24AFC3
:10061A0025AB07AA06E4C39BFFE49AFE7401940083
:10062A00FDE49400FCE4FB7A01F9F8120A838F8D49
:10063A00AE24AF25AB07AA06E4C39BFFE49AFE7477
:10064A00019400FDE49400FCE4FB7A01F9F8120A33
:10065A0083AF038F8B7580FFE5236405702FF52325
:10066A0078087C007D017B017A00790DFE7F0512F6
:10067A00038CEF604D78087C007D017B017A00795C
:10068A000D7E007F051200EE1203B08035E523705F
:10069A0002C280E523B40102C281E523B40202C288
:1006AA0082E523B40302C283E523B40402C284E5CB
:1006BA0090F4FF740D2523F582E43400F583EFF0FE
:1006CA000523D007D006D005D004D003D002D0012C
:0D06DA00D000D0D0D082D083D0F0D0E0325C
:1006E70075C7AA75C75575AA07A2AF9200C2AF759D
:1006F700C7AA75C75543AA80A20092AFA2AF9200BE
:10070700C2AF75C7AA75C75543AA40A20092AF43A7
:100717009B10D2AFE4F5B1F5B1F5B3F5B4F5ACF58F
:10072700AD53B1FE43B20153B1FD43B20253B1FB26
:1007370043B20453B1F743B20853B1EF43B2105376
:10074700890F438910AE24AF25AB07AA06C39BFFC9
:10075700E49AFE74019400FDE49400FCE4FB7A0142
:10076700F9F8120A838F8DAE24AF25AB07AA06E4EA
:10077700C39BFFE49AFE74019400FDE49400FCE43B
:10078700FB7A01F9F8120A83AF038F8BD2ABD2AF92
:10079700D28E7F007EC27D017C00120502A2AF923D
:1007A70000C2AF75C7AA75C75543AA40A20092AF4A
:0207B70080EBD5
:100AFE00538EF7438901D28CEF4E6012758AF375CF
:100B0E008CFF308DFDC28DEF1F70ED1E80EAC28C02
:010B1E0022B4
:1009ED008F0B8E0A8D098C08538EF7438901D28C9B
:1009FD00E4FFFEFDFCAB0BAA0AA909A808C312016E
:100A0D00E26025758ACA758CFA308DFDC28DE50BB5
:100A1D0024FFF50BE50A34FFF50AE50934FFF50966
:0B0A2D00E50834FFF50880C8C28C22E9
:100A38008F0F8E0E8D0D8C0C538EEF438910D28E36
:100A4800E4FFFEFDFCAB0FAA0EA90DA80CC3120112
:100A5800E26025758BCA758DFA308FFDC28FE50F60
:100A680024FFF50FE50E34FFF50EE50D34FFF50D07
:0B0A7800E50C34FFF50C80C8C28E2294
:100952008F138E128D118C1053C9BF53C9DF43C937
:1009620010D2CAE4FFFEFDFCAB13AA12A911A81013
:10097200C31201E2602575CC6075CDF030CFFDC2A7
:10098200CFE51324FFF513E51234FFF512E5113418
:0E099200FFF511E51034FFF51080C8C2CA222F
:1009A0008F178E168D158C1475C40243C408E4FF8E
:1009B000FEFDFCAB17AA16A915A814C31201E2602C
:1009C0002875C56075C6F0E5C430E4FB53C4EFE597
:1009D0001724FFF517E51634FFF516E51534FFF576
:0D09E00015E51434FFF51480C553C4F7224B
:1008FB008F1B8E1A8D198C1853B1BF53B2BF53B1C6
:10090B007F53B27F759852438920438780438E1063
:10091B0053C4DFAB1BAA1AA919A8187F407E427DCE
:10092B000F7C00120150EF04F404F58DAB1BAA1AD7
:10093B00A919A8187F007E187D157C00120150EFB5
:07094B00F404F58DD28E22A9
:100502008F578E568D558C5453B1BF53B2BF53B1D2
:100512007F53B27F75985243878053C4F843C420F7
:10052200AB57AA56A955A8547F407E427D0F7C0046
:10053200120150C374FF9FFF74FF9EFEE49DFDE411
:100542009CFC78081201F38FC6AB57AA56A955A88E
:10055200547F407E427D0F7C00120150C374FF9F86
:10056200FF74FF9EE49DE49CE48FC5AB57AA56A995
:1005720055A854FF7E187D15FC120150C3E49FFF5D
:10058200E49EFE74019DFDE49CFC78081201F38F49
:10059200C6AB57AA56A955A8547F007E187D157C74
:1005A20000120150C3E49FFFE49E74019DE49CE4A9
:1005B2008FC5AB57AA56A955A8547F407E427D0FDE
:1005C200FC120150C374FF9FFF74FF9EFEE49DFD69
:1005D200E49CFC78081201F38FC6AB57AA56A955C2
:1005E200A8547F407E427D0F7C00120150C374FFED
:0805F2009FFF8FC543C40822DE
:070003003098FDAF99C2988F
:01000A0022D3
:08000B00C2998F993099FD2282
:1007B9008F1F8E1E8D1D8C1C53B1FB53B2FB53B37F
:1007C900BF53B4BF75F85253C4F8AB1FAA1EA91D75
:1007D900A81C7F407E427D0F7C00120150C374FF2C
:1007E9009FFF74FF9EFEE49DFDE49CFC78081201C6
:1007F900F38FC6AB1FAA1EA91DA81C7F407E427D90
:100809000F7C00120150C374FF9FFF74FF9EE49D8B
:10081900E49CE48FC5AB1FAA1EA91DA81CFF7E1866
:100829007D15FC120150C3E49FFFE49EFE74019DF7
:10083900FDE49CFC78081201F38FC6AB1FAA1EA920
:100849001DA81C7F007E187D157C00120150C3E491
:080859009FFF8FC543C4082274
:0700130030F8FDAF9AC2F8BE
:01001A0022C3
:080B1F00C2F98F9A30F9FD22A2
:0300000002086192
:10086100787FE4F6D8FD9000007FFF7E03E4F0A3DB
:0A087100DFFCDEFA7581570208B6BD
:10087B000206E7E493A3F8E493A34003F68001F2A6
:10088B0008DFF48029E493A3F85407240CC8C3337E
:10089B00C4540F4420C8834004F456800146F6DF4D
:1008AB00E4800B0102040810204080900AC7E47E0C
:1008BB00019360BCA3FF543F30E509541FFEE49342
:1008CB00A360010ECF54C025E060A840B8E493A309
:1008DB00FAE493A3F8E493A3C8C582C8CAC583CA34
:1008EB00F0A3C8C582C8CAC583CADFE9DEE780BEEC
:010AFD0000F8
:10001E00E709F608DFFA8046E709F208DFFA803EC4
:10002E0088828C83E709F0A3DFFA8032E309F608B1
:10003E00DFFA8078E309F208DFFA807088828C8319
:10004E00E309F0A3DFFA806489828A83E0A3F608CD
:10005E00DFFA805889828A83E0A3F208DFFA804CA7
:10006E0080D280FA80C680D4806980F2803380107E
:10007E0080A680EA809A80A880DA80E280CA8033E7
:10008E0089828A83ECFAE493A3C8C582C8CCC5835F
:10009E00CCF0A3C8C582C8CCC583CCDFE9DEE7802F
:1000AE000D89828A83E493A3F608DFF9ECFAA9F0AE
:1000BE00EDFB2289828A83ECFAE0A3C8C582C8CC04
:1000CE00C583CCF0A3C8C582C8CCC583CCDFEADE1D
:1000DE00E880DB89828A83E493A3F208DFF980CC7F
:1000EE0088F0EF60010E4E60C388F0ED2402B40478
:1000FE000050B9F582EB2402B4040050AF2323451F
:06010E00822390006E73D5
:1001140075F008758200EF2FFFEE33FECD33CDCCA2
:1001240033CCC58233C5829BED9AEC99E582984025
:100134000CF582EE9BFEED9AFDEC99FC0FD5F0D602
:10014400E4CEFBE4CDFAE4CCF9A88222B800C1B92C
:100154000059BA002DEC8BF084CFCECDFCE5F0CB6A
:10016400F97818EF2FFFEE33FEED33FDEC33FCEBA3
:1001740033FB10D703994004EB99FB0FD8E5E4F95E
:10018400FA227818EF2FFFEE33FEED33FDEC33FC4B
:10019400C933C910D7059BE99A4007EC9BFCE99A3F
:1001A400F90FD8E0E4C9FAE4CCFB2275F010EF2F84
:1001B400FFEE33FEED33FDCC33CCC833C810D70784
:1001C4009BEC9AE899400AED9BFDEC9AFCE899F8BF
:0E01D4000FD5F0DAE4CDFBE4CCFAE4C8F92252
:100A8300C2D5E830E70FB2D5E4C39BFBE49AFAE49E
:100A930099F9E498F8EC30E717B2D5120AB91201C4
:100AA30050E4C39BFBE49AFAE499F9E498F88003D1
:100AB30012015030D50DE4C39FFFE49EFEE49DFD7B
:040AC300E49CFC2291
:1001E200EB9FF5F0EA9E42F0E99D42F0E89C45F073
:0101F20022EA
:1001F300E8600FECC313FCED13FDEE13FEEF13FFEA
:03020300D8F1220D
:10020600E3F5F009E208B5F06BDFF58067E3F5F09A
:1002160009E608B5F05EDFF5805A87F009E608B50D
:10022600F052DFF6804E87F009E208B5F046DFF6B9
:10023600804288828C8387F009E0A3B5F036DFF62A
:10024600803288828C8387F009E493A3B5F025DF9A
:10025600F5802188828C83E3F5F009E0A3B5F014DC
:10026600DFF5801088828C83E3F5F009E493A3B56B
:10027600F002DFF4020335808780E9809080D48025
:100286003E8015806E807E809D80B7808D80A380A5
:10029600518074803C02034189828A83ECFAE4939C
:1002A600F5F0A3C8C582C8CCC583CCE493A3C8C562
:1002B60082C8CCC583CCB5F076DFE3DEE1807089F9
:1002C600828A83E493F5F0A3E208B5F062DFF48056
:1002D6005E89828A83E0F5F0A3E608B5F051DFF582
:1002E600804D89828A83E0F5F0A3E208B5F040DF0D
:1002F600F5803C89828A83E493F5F0A3E608B5F09D
:100306002EDFF4802A8002805789828A83ECFAE401
:1003160093F5F0A3C8C582C8CCC583CCE0A3C8C5F5
:1003260082C8CCC583CCB5F006DFE4DEE280007F70
:10033600FFB5F0020F2240027F012289828A83ECF8
:10034600FAE0F5F0A3C8C582C8CCC583CCE0A3C843
:10035600C582C8CCC583CCB5F0D5DFE5DEE380CF5A
:1003660089828A83ECFAE0F5F0A3C8C582C8CCC5B9
:1003760083CCE493A3C8C582C8CCC583CCB5F0AF03
:10038600DFE4DEE280A988F0EF60010E4E60ABED9F
:100396002402B404005098F582EB2402B404005001
:0A03A6008E232345822390027D730D
:00000001FF
